{
  "contractName": "ERC20Token",
  "abi": [
    {
      "inputs": [
        {
          "internalType": "uint256",
          "name": "_initialAmount",
          "type": "uint256"
        },
        {
          "internalType": "string",
          "name": "_tokenName",
          "type": "string"
        },
        {
          "internalType": "uint8",
          "name": "_decimalUnits",
          "type": "uint8"
        },
        {
          "internalType": "string",
          "name": "_tokenSymbol",
          "type": "string"
        }
      ],
      "stateMutability": "nonpayable",
      "type": "constructor"
    },
    {
      "anonymous": false,
      "inputs": [
        {
          "indexed": true,
          "internalType": "address",
          "name": "tokenOwner",
          "type": "address"
        },
        {
          "indexed": true,
          "internalType": "address",
          "name": "spender",
          "type": "address"
        },
        {
          "indexed": false,
          "internalType": "uint256",
          "name": "tokens",
          "type": "uint256"
        }
      ],
      "name": "Approval",
      "type": "event"
    },
    {
      "anonymous": false,
      "inputs": [
        {
          "indexed": true,
          "internalType": "address",
          "name": "from",
          "type": "address"
        },
        {
          "indexed": true,
          "internalType": "address",
          "name": "to",
          "type": "address"
        },
        {
          "indexed": false,
          "internalType": "uint256",
          "name": "tokens",
          "type": "uint256"
        }
      ],
      "name": "Transfer",
      "type": "event"
    },
    {
      "inputs": [
        {
          "internalType": "address",
          "name": "",
          "type": "address"
        },
        {
          "internalType": "address",
          "name": "",
          "type": "address"
        }
      ],
      "name": "allowed",
      "outputs": [
        {
          "internalType": "uint256",
          "name": "",
          "type": "uint256"
        }
      ],
      "stateMutability": "view",
      "type": "function",
      "constant": true
    },
    {
      "inputs": [
        {
          "internalType": "address",
          "name": "",
          "type": "address"
        }
      ],
      "name": "balances",
      "outputs": [
        {
          "internalType": "uint256",
          "name": "",
          "type": "uint256"
        }
      ],
      "stateMutability": "view",
      "type": "function",
      "constant": true
    },
    {
      "inputs": [],
      "name": "decimals",
      "outputs": [
        {
          "internalType": "uint8",
          "name": "",
          "type": "uint8"
        }
      ],
      "stateMutability": "view",
      "type": "function",
      "constant": true
    },
    {
      "inputs": [],
      "name": "name",
      "outputs": [
        {
          "internalType": "string",
          "name": "",
          "type": "string"
        }
      ],
      "stateMutability": "view",
      "type": "function",
      "constant": true
    },
    {
      "inputs": [],
      "name": "symbol",
      "outputs": [
        {
          "internalType": "string",
          "name": "",
          "type": "string"
        }
      ],
      "stateMutability": "view",
      "type": "function",
      "constant": true
    },
    {
      "inputs": [],
      "name": "totSupply",
      "outputs": [
        {
          "internalType": "uint256",
          "name": "",
          "type": "uint256"
        }
      ],
      "stateMutability": "view",
      "type": "function",
      "constant": true
    },
    {
      "inputs": [
        {
          "internalType": "address",
          "name": "_to",
          "type": "address"
        },
        {
          "internalType": "uint256",
          "name": "_value",
          "type": "uint256"
        }
      ],
      "name": "transfer",
      "outputs": [
        {
          "internalType": "bool",
          "name": "success",
          "type": "bool"
        }
      ],
      "stateMutability": "nonpayable",
      "type": "function"
    },
    {
      "inputs": [
        {
          "internalType": "address",
          "name": "_from",
          "type": "address"
        },
        {
          "internalType": "address",
          "name": "_to",
          "type": "address"
        },
        {
          "internalType": "uint256",
          "name": "_value",
          "type": "uint256"
        }
      ],
      "name": "transferFrom",
      "outputs": [
        {
          "internalType": "bool",
          "name": "success",
          "type": "bool"
        }
      ],
      "stateMutability": "nonpayable",
      "type": "function"
    },
    {
      "inputs": [
        {
          "internalType": "address",
          "name": "_owner",
          "type": "address"
        }
      ],
      "name": "balanceOf",
      "outputs": [
        {
          "internalType": "uint256",
          "name": "balance",
          "type": "uint256"
        }
      ],
      "stateMutability": "view",
      "type": "function",
      "constant": true
    },
    {
      "inputs": [
        {
          "internalType": "address",
          "name": "_spender",
          "type": "address"
        },
        {
          "internalType": "uint256",
          "name": "_value",
          "type": "uint256"
        }
      ],
      "name": "approve",
      "outputs": [
        {
          "internalType": "bool",
          "name": "success",
          "type": "bool"
        }
      ],
      "stateMutability": "nonpayable",
      "type": "function"
    },
    {
      "inputs": [
        {
          "internalType": "address",
          "name": "_owner",
          "type": "address"
        },
        {
          "internalType": "address",
          "name": "_spender",
          "type": "address"
        }
      ],
      "name": "allowance",
      "outputs": [
        {
          "internalType": "uint256",
          "name": "remaining",
          "type": "uint256"
        }
      ],
      "stateMutability": "view",
      "type": "function",
      "constant": true
    },
    {
      "inputs": [],
      "name": "totalSupply",
      "outputs": [
        {
          "internalType": "uint256",
          "name": "totSupp",
          "type": "uint256"
        }
      ],
      "stateMutability": "view",
      "type": "function",
      "constant": true
    }
  ],
  "bytecode": "0x60806040523480156200001157600080fd5b50604051620016eb380380620016eb8339818101604052810190620000379190620003d4565b81600a62000046919062000607565b8462000053919062000658565b6000803373ffffffffffffffffffffffffffffffffffffffff1673ffffffffffffffffffffffffffffffffffffffff1681526020019081526020016000208190555081600a620000a4919062000607565b84620000b1919062000658565b6002819055508260039080519060200190620000cf9291906200010e565b5081600460006101000a81548160ff021916908360ff1602179055508060059080519060200190620001039291906200010e565b50505050506200071e565b8280546200011c90620006e8565b90600052602060002090601f0160209004810192826200014057600085556200018c565b82601f106200015b57805160ff19168380011785556200018c565b828001600101855582156200018c579182015b828111156200018b5782518255916020019190600101906200016e565b5b5090506200019b91906200019f565b5090565b5b80821115620001ba576000816000905550600101620001a0565b5090565b6000604051905090565b600080fd5b600080fd5b6000819050919050565b620001e781620001d2565b8114620001f357600080fd5b50565b6000815190506200020781620001dc565b92915050565b600080fd5b600080fd5b6000601f19601f8301169050919050565b7f4e487b7100000000000000000000000000000000000000000000000000000000600052604160045260246000fd5b620002628262000217565b810181811067ffffffffffffffff8211171562000284576200028362000228565b5b80604052505050565b600062000299620001be565b9050620002a7828262000257565b919050565b600067ffffffffffffffff821115620002ca57620002c962000228565b5b620002d58262000217565b9050602081019050919050565b60005b8381101562000302578082015181840152602081019050620002e5565b8381111562000312576000848401525b50505050565b60006200032f6200032984620002ac565b6200028d565b9050828152602081018484840111156200034e576200034d62000212565b5b6200035b848285620002e2565b509392505050565b600082601f8301126200037b576200037a6200020d565b5b81516200038d84826020860162000318565b91505092915050565b600060ff82169050919050565b620003ae8162000396565b8114620003ba57600080fd5b50565b600081519050620003ce81620003a3565b92915050565b60008060008060808587031215620003f157620003f0620001c8565b5b60006200040187828801620001f6565b945050602085015167ffffffffffffffff811115620004255762000424620001cd565b5b620004338782880162000363565b93505060406200044687828801620003bd565b925050606085015167ffffffffffffffff8111156200046a5762000469620001cd565b5b620004788782880162000363565b91505092959194509250565b7f4e487b7100000000000000000000000000000000000000000000000000000000600052601160045260246000fd5b60008160011c9050919050565b6000808291508390505b60018511156200051257808604811115620004ea57620004e962000484565b5b6001851615620004fa5780820291505b80810290506200050a85620004b3565b9450620004ca565b94509492505050565b6000826200052d576001905062000600565b816200053d576000905062000600565b8160018114620005565760028114620005615762000597565b600191505062000600565b60ff84111562000576576200057562000484565b5b8360020a91508482111562000590576200058f62000484565b5b5062000600565b5060208310610133831016604e8410600b8410161715620005d15782820a905083811115620005cb57620005ca62000484565b5b62000600565b620005e08484846001620004c0565b92509050818404811115620005fa57620005f962000484565b5b81810290505b9392505050565b60006200061482620001d2565b9150620006218362000396565b9250620006507fffffffffffffffffffffffffffffffffffffffffffffffffffffffffffffffff84846200051b565b905092915050565b60006200066582620001d2565b91506200067283620001d2565b9250817fffffffffffffffffffffffffffffffffffffffffffffffffffffffffffffffff0483118215151615620006ae57620006ad62000484565b5b828202905092915050565b7f4e487b7100000000000000000000000000000000000000000000000000000000600052602260045260246000fd5b600060028204905060018216806200070157607f821691505b60208210811415620007185762000717620006b9565b5b50919050565b610fbd806200072e6000396000f3fe608060405234801561001057600080fd5b50600436106100b45760003560e01c80635c658165116100715780635c658165146101a357806370a08231146101d357806381fbf0a51461020357806395d89b4114610221578063a9059cbb1461023f578063dd62ed3e1461026f576100b4565b806306fdde03146100b9578063095ea7b3146100d757806318160ddd1461010757806323b872dd1461012557806327e235e314610155578063313ce56714610185575b600080fd5b6100c161029f565b6040516100ce9190610af7565b60405180910390f35b6100f160048036038101906100ec9190610bb2565b61032d565b6040516100fe9190610c0d565b60405180910390f35b61010f61041f565b60405161011c9190610c37565b60405180910390f35b61013f600480360381019061013a9190610c52565b610429565b60405161014c9190610c0d565b60405180910390f35b61016f600480360381019061016a9190610ca5565b61070f565b60405161017c9190610c37565b60405180910390f35b61018d610727565b60405161019a9190610cee565b60405180910390f35b6101bd60048036038101906101b89190610d09565b61073a565b6040516101ca9190610c37565b60405180910390f35b6101ed60048036038101906101e89190610ca5565b61075f565b6040516101fa9190610c37565b60405180910390f35b61020b6107a7565b6040516102189190610c37565b60405180910390f35b6102296107ad565b6040516102369190610af7565b60405180910390f35b61025960048036038101906102549190610bb2565b61083b565b6040516102669190610c0d565b60405180910390f35b61028960048036038101906102849190610d09565b6109d7565b6040516102969190610c37565b60405180910390f35b600380546102ac90610d78565b80601f01602080910402602001604051908101604052809291908181526020018280546102d890610d78565b80156103255780601f106102fa57610100808354040283529160200191610325565b820191906000526020600020905b81548152906001019060200180831161030857829003601f168201915b505050505081565b600081600160003373ffffffffffffffffffffffffffffffffffffffff1673ffffffffffffffffffffffffffffffffffffffff16815260200190815260200160002060008573ffffffffffffffffffffffffffffffffffffffff1673ffffffffffffffffffffffffffffffffffffffff168152602001908152602001600020819055508273ffffffffffffffffffffffffffffffffffffffff163373ffffffffffffffffffffffffffffffffffffffff167f8c5be1e5ebec7d5bd14f71427d1e84f3dd0314c0f7b2291e5b200ac8c7c3b9258460405161040d9190610c37565b60405180910390a36001905092915050565b6000600254905090565b600080600160008673ffffffffffffffffffffffffffffffffffffffff1673ffffffffffffffffffffffffffffffffffffffff16815260200190815260200160002060003373ffffffffffffffffffffffffffffffffffffffff1673ffffffffffffffffffffffffffffffffffffffff168152602001908152602001600020549050826000808773ffffffffffffffffffffffffffffffffffffffff1673ffffffffffffffffffffffffffffffffffffffff16815260200190815260200160002054101580156104f95750828110155b610538576040517f08c379a000000000000000000000000000000000000000000000000000000000815260040161052f90610e1c565b60405180910390fd5b826000808673ffffffffffffffffffffffffffffffffffffffff1673ffffffffffffffffffffffffffffffffffffffff16815260200190815260200160002060008282546105869190610e6b565b92505081905550826000808773ffffffffffffffffffffffffffffffffffffffff1673ffffffffffffffffffffffffffffffffffffffff16815260200190815260200160002060008282546105db9190610ec1565b925050819055507fffffffffffffffffffffffffffffffffffffffffffffffffffffffffffffffff81101561069e5782600160008773ffffffffffffffffffffffffffffffffffffffff1673ffffffffffffffffffffffffffffffffffffffff16815260200190815260200160002060003373ffffffffffffffffffffffffffffffffffffffff1673ffffffffffffffffffffffffffffffffffffffff16815260200190815260200160002060008282546106969190610ec1565b925050819055505b8373ffffffffffffffffffffffffffffffffffffffff168573ffffffffffffffffffffffffffffffffffffffff167fddf252ad1be2c89b69c2b068fc378daa952ba7f163c4a11628f55a4df523b3ef856040516106fb9190610c37565b60405180910390a360019150509392505050565b60006020528060005260406000206000915090505481565b600460009054906101000a900460ff1681565b6001602052816000526040600020602052806000526040600020600091509150505481565b60008060008373ffffffffffffffffffffffffffffffffffffffff1673ffffffffffffffffffffffffffffffffffffffff168152602001908152602001600020549050919050565b60025481565b600580546107ba90610d78565b80601f01602080910402602001604051908101604052809291908181526020018280546107e690610d78565b80156108335780601f1061080857610100808354040283529160200191610833565b820191906000526020600020905b81548152906001019060200180831161081657829003601f168201915b505050505081565b6000816000803373ffffffffffffffffffffffffffffffffffffffff1673ffffffffffffffffffffffffffffffffffffffff1681526020019081526020016000205410156108be576040517f08c379a00000000000000000000000000000000000000000000000000000000081526004016108b590610f67565b60405180910390fd5b816000803373ffffffffffffffffffffffffffffffffffffffff1673ffffffffffffffffffffffffffffffffffffffff168152602001908152602001600020600082825461090c9190610ec1565b92505081905550816000808573ffffffffffffffffffffffffffffffffffffffff1673ffffffffffffffffffffffffffffffffffffffff16815260200190815260200160002060008282546109619190610e6b565b925050819055508273ffffffffffffffffffffffffffffffffffffffff163373ffffffffffffffffffffffffffffffffffffffff167fddf252ad1be2c89b69c2b068fc378daa952ba7f163c4a11628f55a4df523b3ef846040516109c59190610c37565b60405180910390a36001905092915050565b6000600160008473ffffffffffffffffffffffffffffffffffffffff1673ffffffffffffffffffffffffffffffffffffffff16815260200190815260200160002060008373ffffffffffffffffffffffffffffffffffffffff1673ffffffffffffffffffffffffffffffffffffffff16815260200190815260200160002054905092915050565b600081519050919050565b600082825260208201905092915050565b60005b83811015610a98578082015181840152602081019050610a7d565b83811115610aa7576000848401525b50505050565b6000601f19601f8301169050919050565b6000610ac982610a5e565b610ad38185610a69565b9350610ae3818560208601610a7a565b610aec81610aad565b840191505092915050565b60006020820190508181036000830152610b118184610abe565b905092915050565b600080fd5b600073ffffffffffffffffffffffffffffffffffffffff82169050919050565b6000610b4982610b1e565b9050919050565b610b5981610b3e565b8114610b6457600080fd5b50565b600081359050610b7681610b50565b92915050565b6000819050919050565b610b8f81610b7c565b8114610b9a57600080fd5b50565b600081359050610bac81610b86565b92915050565b60008060408385031215610bc957610bc8610b19565b5b6000610bd785828601610b67565b9250506020610be885828601610b9d565b9150509250929050565b60008115159050919050565b610c0781610bf2565b82525050565b6000602082019050610c226000830184610bfe565b92915050565b610c3181610b7c565b82525050565b6000602082019050610c4c6000830184610c28565b92915050565b600080600060608486031215610c6b57610c6a610b19565b5b6000610c7986828701610b67565b9350506020610c8a86828701610b67565b9250506040610c9b86828701610b9d565b9150509250925092565b600060208284031215610cbb57610cba610b19565b5b6000610cc984828501610b67565b91505092915050565b600060ff82169050919050565b610ce881610cd2565b82525050565b6000602082019050610d036000830184610cdf565b92915050565b60008060408385031215610d2057610d1f610b19565b5b6000610d2e85828601610b67565b9250506020610d3f85828601610b67565b9150509250929050565b7f4e487b7100000000000000000000000000000000000000000000000000000000600052602260045260246000fd5b60006002820490506001821680610d9057607f821691505b60208210811415610da457610da3610d49565b5b50919050565b7f496e73756666696369656e7420616c6c6f7765642066756e647320666f72207460008201527f72616e7366657220736f757263652e0000000000000000000000000000000000602082015250565b6000610e06602f83610a69565b9150610e1182610daa565b604082019050919050565b60006020820190508181036000830152610e3581610df9565b9050919050565b7f4e487b7100000000000000000000000000000000000000000000000000000000600052601160045260246000fd5b6000610e7682610b7c565b9150610e8183610b7c565b9250827fffffffffffffffffffffffffffffffffffffffffffffffffffffffffffffffff03821115610eb657610eb5610e3c565b5b828201905092915050565b6000610ecc82610b7c565b9150610ed783610b7c565b925082821015610eea57610ee9610e3c565b5b828203905092915050565b7f496e73756666696369656e742066756e647320666f72207472616e736665722060008201527f736f757263652e00000000000000000000000000000000000000000000000000602082015250565b6000610f51602783610a69565b9150610f5c82610ef5565b604082019050919050565b60006020820190508181036000830152610f8081610f44565b905091905056fea264697066735822122017f07b97671345382f42d49f859186061ae6b9fb666e178b4787f8513554e6e164736f6c634300080b0033",
  "immutableReferences": {},
  "source": "// SPDX-License-Identifier: MIT\n// ----------------------------------------------------------------------------\n///Implements EIP20 token standard: https://github.com/ethereum/EIPs/blob/master/EIPS/eip-20.md\n// ----------------------------------------------------------------------------\npragma solidity >=0.4.22 <0.9.0;\n\nimport \"./erc20Interface.sol\";\n\ncontract ERC20Token is ERC20Interface {\n\n    uint256 constant private MAX_UINT256 = 2**256 - 1;\n    mapping (address => uint256) public balances;\n    mapping (address => mapping (address => uint256)) public allowed;\n\n    uint256 public totSupply;           // Total number of tokens\n    string public name;                   // Descriptive name (i.e. For Dummies Sample Token)\n    uint8 public decimals;                // How many decimals to use when displaying amounts\n    string public symbol;                 // Short identifier for token (i.e. FDT)\n\n    // Create the new token and assign initial values, including initial amount\n    constructor(\n        uint256 _initialAmount,\n        string memory _tokenName,\n        uint8 _decimalUnits,\n        string memory _tokenSymbol\n    ) {\n        balances[msg.sender] = _initialAmount*(10**_decimalUnits);               // The creator owns all initial tokens\n        totSupply = _initialAmount*(10**_decimalUnits);                        // Update total token supply\n        name = _tokenName;                                   // Store the token name (used for display only)\n        decimals = _decimalUnits;                            // Store the number of decimals (used for display only)\n        symbol = _tokenSymbol;                               // Store the token symbol (used for display only)\n    }\n\n    // Transfer tokens from msg.sender to a specified address\n    function transfer(address _to, uint256 _value) public virtual override returns (bool success) {\n        require(balances[msg.sender] >= _value,\"Insufficient funds for transfer source.\");\n        balances[msg.sender] -= _value;\n        balances[_to] += _value;\n        emit Transfer(msg.sender, _to, _value); //solhint-disable-line indent, no-unused-vars\n        return true;\n    }\n\n    // Transfer tokens from one specified address to another specified address\n    function transferFrom(address _from, address _to, uint256 _value)  public virtual override returns (bool success) {\n        uint256 allowanceFrom = allowed[_from][msg.sender];\n        require(balances[_from] >= _value && allowanceFrom >= _value,\"Insufficient allowed funds for transfer source.\");\n        balances[_to] += _value;\n        balances[_from] -= _value;\n        if (allowanceFrom < MAX_UINT256) {\n            allowed[_from][msg.sender] -= _value;\n        }\n        emit Transfer(_from, _to, _value); //solhint-disable-line indent, no-unused-vars\n        return true;\n    }\n\n    // Return the current balance (in tokens) of a specified address\n    function balanceOf(address _owner) public view virtual override returns (uint256 balance) {\n        return balances[_owner];\n    }\n\n    // Set\n    function approve(address _spender, uint256 _value) public virtual override returns (bool success) {\n        allowed[msg.sender][_spender] = _value;\n        emit Approval(msg.sender, _spender, _value); //solhint-disable-line indent, no-unused-vars\n        return true;\n    }\n\n    // Return the\n    function allowance(address _owner, address _spender) public view virtual override returns (uint256 remaining) {\n        return allowed[_owner][_spender];\n    }\n\n    // Return the total number of tokens in circulation\n    function totalSupply() public view virtual override returns (uint256 totSupp) {\n        return totSupply;\n    }\n}",
  "sourcePath": "/Users/tuanna1/Desktop/Training/blockchain/linkedin/supplyChainApp/contracts/erc20Token.sol",
  "compiler": {
    "name": "solc",
    "version": "0.8.11+commit.d7f03943.Emscripten.clang"
  },
  "schemaVersion": "3.4.4",
  "updatedAt": "2022-02-12T20:26:47.260Z",
  "networkType": "ethereum",
  "devdoc": {
    "kind": "dev",
    "methods": {},
    "version": 1
  },
  "userdoc": {
    "kind": "user",
    "methods": {},
    "version": 1
  }
}